:020000040000FA
:100000000C9461000C947E000C947E000C947E0095
:100010000C947E000C947E000C947E000C947E0068
:100020000C947E000C947E000C947E000C947E0058
:100030000C947E000C947E000C947E000C947E0048
:100040000C9488010C947E000C947E000C947E002D
:100050000C947E000C947E000C947E000C947E0028
:100060000C947E000C947E00000000002400270009
:100070002A0000000000250028002B0000000000DE
:1000800023002600290004040404040404040202DA
:100090000202020203030303030301020408102007
:1000A0004080010204081020010204081020000012
:1000B0000008000201000003040700000000000027
:1000C000000011241FBECFEFD8E0DEBFCDBF11E08E
:1000D000A0E0B1E0ECE5F5E002C005900D92A83299
:1000E000B107D9F721E0A8E2B1E001C01D92A53324
:1000F000B207E1F70E94D2010C94AC020C9400000C
:10010000833081F028F4813099F08230A9F008958D
:100110008730A9F08830C9F08430B1F48091800034
:100120008F7D03C0809180008F7780938000089539
:1001300084B58F7784BD089584B58F7DFBCF809182
:10014000B0008F778093B00008958091B0008F7DCC
:10015000F9CFCF93DF93282F30E0F901E255FF4F1D
:100160008491F901E656FF4FD491F901EA57FF4F08
:10017000C491CC23A1F081110E948000EC2FF0E00B
:10018000EE0FFF1FE458FF4FA591B491EC91ED23C2
:1001900081E090E009F480E0DF91CF91089580E064
:1001A00090E0FACF1F93CF93DF93282F30E0F9012F
:1001B000E255FF4F8491F901E656FF4FD491F901C2
:1001C000EA57FF4FC491CC23A9F0162F81110E944A
:1001D0008000EC2FF0E0EE0FFF1FEE58FF4FA591CF
:1001E000B4918FB7F894EC91111108C0D095DE232B
:1001F000DC938FBFDF91CF911F910895DE2BF8CF55
:10020000CF93DF9390E0FC01E656FF4F24918A578D
:100210009F4FFC0184918823D1F090E0880F991FB3
:10022000FC01E859FF4FA591B491FC01EE58FF4F36
:10023000C591D49161110EC09FB7F8948C91E22FB3
:10024000E0958E238C932881E223E8839FBFDF9182
:10025000CF9108958FB7F894EC91E22BEC938FBF78
:10026000F6CF3FB7F89480912D0190912E01A09187
:100270002F01B091300126B5A89B05C02F3F19F082
:100280000196A11DB11D3FBFBA2FA92F982F882716
:10029000BC01CD01620F711D811D911D42E0660FF1
:1002A000771F881F991F4A95D1F708958F929F92C3
:1002B000AF92BF92CF92DF92EF92FF924B015C011F
:1002C0000E9431016B017C010E9431016C197D0992
:1002D0008E099F09683E734081059105A8F321E0CE
:1002E000821A9108A108B10888EEC80E83E0D81ED2
:1002F000E11CF11C81149104A104B10429F7FF90C1
:10030000EF90DF90CF90BF90AF909F908F90089527
:100310001F920F920FB60F9211242F933F938F933A
:100320009F93AF93BF938091290190912A01A0914F
:100330002B01B0912C013091280123E0230F2D37A0
:1003400058F50196A11DB11D209328018093290124
:1003500090932A01A0932B01B0932C0180912D0141
:1003600090912E01A0912F01B09130010196A11D15
:10037000B11D80932D0190932E01A0932F01B09376
:100380003001BF91AF919F918F913F912F910F902D
:100390000FBE0F901F90189526E8230F0296A11DFF
:1003A000B11DD2CF789484B5826084BD84B581605C
:1003B00084BD85B5826085BD85B5816085BD809130
:1003C0006E00816080936E001092810080918100A8
:1003D00082608093810080918100816080938100A0
:1003E000809180008160809380008091B100846062
:1003F0008093B1008091B00081608093B0008091C3
:100400007A00846080937A0080917A008260809381
:100410007A0080917A00816080937A0080917A00DE
:10042000806880937A001092C10061E087E00E94AA
:10043000000161E086E00E94000160E08DE00E9422
:10044000000160E08CE00E940001BB24B39420E036
:10045000C22E20E0D22E8DE00E94A9008C0181E006
:100460000115110509F480E0809334018CE00E94AD
:10047000A9007C0181E0E114F10409F480E080939B
:100480003301C0913101D09132010115110509F4F8
:1004900053C0FE01EE0FFF1FE050FF4FA0806B2DF9
:1004A0006A1986E00E94D2006A2D87E00E94D2007D
:1004B0002196D0933201C093310164EF71E080E066
:1004C00090E00E9456018091310190913201449751
:1004D000E4F061E087E00E94D20061E086E00E94E3
:1004E000D20068EC70E080E090E00E94560160E08D
:1004F00087E00E94D20060E086E00E94D20068ECB3
:1005000070E080E090E00E945601EF2871F0012B2E
:1005100061F0109232011092310160E087E00E9498
:10052000D20060E086E00E94D200C114D10409F438
:1005300092CF0E9400008FCFE114F10421F2FE015E
:10054000EE0FFF1FE050FF4FA0806A2D86E00E9453
:10055000D2006B2D6A19A9CFF894FFCF01000000DB
:100560000000010000000000000001000100000088
:100570000100000001000000010000000000010077
:040580000000010076
:107E0000112484B714BE81FFF0D085E080938100F7
:107E100082E08093C00088E18093C10086E0809377
:107E2000C20080E18093C4008EE0C9D0259A86E02C
:107E300020E33CEF91E0309385002093840096BBD3
:107E4000B09BFECF1D9AA8958150A9F7CC24DD24C4
:107E500088248394B5E0AB2EA1E19A2EF3E0BF2EE7
:107E6000A2D0813461F49FD0082FAFD0023811F036
:107E7000013811F484E001C083E08DD089C08234E0
:107E800011F484E103C0853419F485E0A6D080C0E4
:107E9000853579F488D0E82EFF2485D0082F10E0AE
:107EA000102F00270E291F29000F111F8ED06801E7
:107EB0006FC0863521F484E090D080E0DECF843638
:107EC00009F040C070D06FD0082F6DD080E0C81688
:107ED00080E7D80618F4F601B7BEE895C0E0D1E017
:107EE00062D089930C17E1F7F0E0CF16F0E7DF06D8
:107EF00018F0F601B7BEE89568D007B600FCFDCFD4
:107F0000A601A0E0B1E02C9130E011968C91119780
:107F100090E0982F8827822B932B1296FA010C0160
:107F200087BEE89511244E5F5F4FF1E0A038BF0790
:107F300051F7F601A7BEE89507B600FCFDCF97BE46
:107F4000E89526C08437B1F42ED02DD0F82E2BD052
:107F50003CD0F601EF2C8F010F5F1F4F84911BD097
:107F6000EA94F801C1F70894C11CD11CFA94CF0C13
:107F7000D11C0EC0853739F428D08EE10CD085E9AC
:107F80000AD08FE07ACF813511F488E018D01DD067
:107F900080E101D065CF982F8091C00085FFFCCF94
:107FA0009093C60008958091C00087FFFCCF809118
:107FB000C00084FD01C0A8958091C6000895E0E648
:107FC000F0E098E1908380830895EDDF803219F02E
:107FD00088E0F5DFFFCF84E1DECF1F93182FE3DFCA
:107FE0001150E9F7F2DF1F91089580E0E8DFEE27F6
:047FF000FF270994CA
:027FFE00040479
:00000001FF
